:100000000C9468000C94F3050C94CC050C949000AF
:100010000C9490000C9490000C9490000C94900020
:100020000C9490000C9490000C9490000C94900010
:100030000C9490000C9490000C9490000C94900000
:100040000C9482050C9490000C9440060C941A06B3
:100050000C9490000C9490000C9490000C949000E0
:100060000C9472060C94900058095F0962096A09A1
:100070006D0970097309760979097C0987090000FF
:100080000008000201000003040700000000000057
:10009000000000000000250028002B0000000000E8
:1000A000240027002A0004040404040404040202B7
:1000B00002020202030303030303010204081020E7
:1000C0004080010204081020010204081020A0074B
:1000D00011241FBECFEFD8E0DEBFCDBF12E0A0E0FD
:1000E000B1E0EAE7F9E102C005900D92A434B1074E
:1000F000D9F724E0A4E4B2E001C01D92AD31B2070B
:10010000E1F710E0C8E6D0E004C02197FE010E94AC
:10011000B00CC736D107C9F70E94EC070C94BB0C92
:100120000C94000090E0FC01E654FF4F2491FC0188
:10013000EA55FF4F8491882399F090E0880F991F2A
:10014000FC01E456FF4FA591B491FC01EE56FF4F20
:10015000859194918FB7F894EC91E22BEC938FBF3B
:10016000089590E0FC01E258FF4F2491FC01E65411
:10017000FF4F3491FC01EA55FF4FE491EE2309F45F
:100180003CC0222339F1233091F038F42130A9F01A
:10019000223001F584B58F7D12C0273091F02830D0
:1001A000A1F02430B9F4809180008F7D03C080914C
:1001B00080008F77809380000DC084B58F7784BDD9
:1001C00009C08091B0008F7703C08091B0008F7D0F
:1001D0008093B000F0E0EE0FFF1FEE56FF4FA591A9
:1001E000B4919FB7F894611104C08C913095382375
:1001F00002C0EC913E2B3C939FBF08958E3008F0D7
:100200008E508770806480937C0080917A00806437
:1002100080937A0080917A0086FDFCCF80917800EF
:100220002091790090E0922B0895E091D602F09110
:10023000D702309729F01092D3021092D20209947B
:100240000895CF93DF93AC01E091D802F091D902E9
:100250003097F1F09091D5028091D4029817C0F0B8
:1002600090E0292F30E02617370754F4D901AC5B12
:10027000BD4FEA01C20FD31F28812C939F5FF1CF9E
:100280001092D5026093D402CB01DF91CF910994F3
:10029000DF91CF9108950895CF92DF92EF92FF9270
:1002A0000F931F93CF93DF936C017A018B01C0E012
:1002B000D0E0CE15DF0581F0D8016D918D01D6011A
:1002C000ED91FC910190F081E02DC6010995892BFB
:1002D00011F02196EECF7E01C701DF91CF911F91E2
:1002E0000F91FF90EF90DF90CF900895FC01538D18
:1002F000448D252F30E0842F90E0821B930B541700
:1003000010F0CF96089501970895FC01918D828D8C
:10031000981761F0828DDF01A80FB11D5D968C9159
:10032000928D9F5F9F73928F90E008958FEF9FEF64
:100330000895FC01918D828D981731F0828DE80F20
:10034000F11D858D90E008958FEF9FEF0895FC01DA
:10035000918D228D892F90E0805C9F4F821B9109A7
:100360008F739927089584EE92E00E94A70121E0FF
:10037000892B09F420E0822F0895FC01848DDF0190
:10038000A80FB11DA35ABF4F2C91848D90E0019608
:100390008F739927848FA689B7892C93A089B189F7
:1003A0008C91837080648C93938D848D981306C098
:1003B0000288F389E02D80818F7D80830895EF92FC
:1003C000FF920F931F93CF93DF93EC0181E0888F0F
:1003D0009B8D8C8D981305C0E889F989808185FDF6
:1003E00026C0F62E0B8D10E00F5F1F4F0F731127E5
:1003F000E02E8C8DE8120CC00FB607FCFACFE8890E
:10040000F989808185FFF5CFCE010E94BD01F1CF32
:100410008B8DFE01E80FF11DE35AFF4FF0829FB76D
:10042000F8940B8FEA89FB89808180620AC09FB7AC
:10043000F894EE89FF896083E889F9898081837067
:10044000806480839FBF81E090E0DF91CF911F9116
:100450000F91FF90EF900895CF93DF93EC01888D7B
:100460008823C9F0EA89FB89808185FD05C0A889B8
:10047000B9898C9186FD0FC00FB607FCF5CF80813E
:1004800085FFF2CFA889B9898C9185FFEDCFCE0188
:100490000E94BD01E7CFDF91CF91089580E090E009
:1004A000892B29F00E94B30181110C94000008955A
:1004B0002F923F924F925F926F927F928F929F9274
:1004C000AF92BF92CF92DF92EF92FF920F931F9362
:1004D000CF93DF93CDB7DEB72F970FB6F894DEBF7B
:1004E0000FBECDBF9A8389838FB7F8942091E00225
:1004F0003091E1024091E2025091E3022A873B876A
:100500004C875D878FBFE981FA8182A193A1A4A165
:10051000B5A14A855B856C857D85481B590B6A0BA7
:100520007B0B86A597A5A0A9B1A9481759076A070B
:100530007B0708F41BC1FF87EE87048CF58DE02D47
:10054000208131814281538129833A834B835C83AB
:10055000AE85BF859096ED91FC91919760817181F8
:10056000828193810E94E40A4B015C01EE85FF8544
:1005700022A533A544A555A569817A818B819C81EB
:100580000E94E40A6B017C01AE85BF8550962D91D7
:100590003D914D915C915397C501B4010E94430C6C
:1005A000EE85FF8526A137A140A551A50E94E50A49
:1005B0002B013C01AE85BF8596966D937D938D93FF
:1005C0009C939997DB96BC91BD83B11118C0EE85C1
:1005D000FF852485358546855785C701B6010E946C
:1005E000430C9B01AC01C301B2010E94E40AAE8539
:1005F000BF8596966D937D938D939C939997EE8589
:10060000FF8546A057A060A471A416A907A930AC25
:1006100021AC212F302F432D522DC301B2010E9456
:100620003E0C18165CF4812F902FA32DB22DEE8571
:10063000FF8586A397A3A0A7B1A71EC0AE85BF85DF
:10064000D2962D913D914D915C91D5972E833F830C
:1006500048875987C301B2010E94510B87FF0CC024
:100660002E813F8148855985AE85BF8596962D930D
:100670003D934D935C939997BD81BB2369F0EE85C3
:10068000FF852485358546855785C501B4010E94BF
:10069000430C4B015C0103C0812C912C5401AE85AD
:1006A000BF8554962D913D914D915C915797C7010F
:1006B000B6010E94430C9B01AC01EE85FF8566A14B
:1006C00077A180A591A50E94E40AA50194010E944A
:1006D000E50A6B017C019B01AC01612F702F832D1A
:1006E000922D0E94510B87FD1BC0AE85BF85D2960F
:1006F0001C91D297D3960C91D397D4963C90D497D3
:10070000D5962C90212F302F432D522DB601C701A5
:100710000E94510B87FD04C01C2D0D2D3E2C2F2C4B
:10072000AE85BF855E96ED91FC915F97812F902FEE
:10073000A32DB22D80839183A283B38329813A8133
:100740004B815C81AE85BF859A962D933D934D93E9
:100750005C939D972A853B854C855D8592962D936C
:100760003D934D935C93959781E001C080E02F9677
:100770000FB6F894DEBF0FBECDBFDF91CF911F91B2
:100780000F91FF90EF90DF90CF90BF90AF909F9030
:100790008F907F906F905F904F903F902F90089533
:1007A0008F929F92AF92BF92CF92DF92EF92FF9281
:1007B000CF93DF93EC01EE8DFF8DC080D180E2807E
:1007C000F380CEA2DFA2E8A6F9A6EC8DFD8D808194
:1007D0009181A281B3818AA79BA7ACA7BDA78EA850
:1007E0009FA8A8ACB9ACA5019401C701B6010E94AD
:1007F0003E0C181664F08AA89BA8ACA8BDA8A50159
:100800009401C701B6010E94510B87FF04C08EA25C
:100810009FA2A8A6B9A6DF91CF91FF90EF90DF909D
:10082000CF90BF90AF909F908F90089585ED80936B
:10083000BC008091BC0084FDFCCF1092D1020895D1
:1008400040918402262F30E0240F311D21323105E2
:10085000DCF42091D1022430C9F4FC0180E090E066
:10086000861758F4309184022191DC01AC59BD4FB8
:10087000A30FB11D2C930196F3CF80918402680FD2
:100880006093840280E0089581E0089582E00895F5
:100890000895E091D5028091D402E81730F4F0E099
:1008A000EC5BFD4F808190E008958FEF9FEF0895FE
:1008B0009091D5028091D402981750F4E92FF0E07E
:1008C000EC5BFD4F208130E09F5F9093D50202C02A
:1008D0002FEF3FEFC90108958091D40290E020915D
:1008E000D502821B91090895CF93DF93CB01EA01D2
:1008F000642F0E942004CE01DF91CF910895CF9301
:10090000DF931F92CDB7DEB7698361E0CE01019618
:100910000E94200481E090E00F90DF91CF91089534
:10092000089580E090E00895CF93DF93C0E0D1E098
:100930009091D4028091D502981759F081E893E004
:100940000E9458048993682F84EE92E00E94DF0190
:10095000EFCF8091010180930A0180910201809381
:100960000C01809103018093080180910401809320
:1009700009018091050180930D01A895DF91CF9128
:100980000895FC01578F468F758F648F31A320A384
:1009900012AE12AA13AA14AA15AA80E090E0AFE73B
:1009A000B3E486AB97ABA0AFB1AF84E690E0A0E034
:1009B000B0E086A797A7A0ABB1AB118E108E81E0F7
:1009C00090E0938F828F83AF80E090E0A0E0B0E46E
:1009D00080839183A283B38340E050E060EA70E4B7
:1009E000448355836683778340E050E060E87FE38B
:1009F000408751876287738784879587A687B787E3
:100A000080E090E0A0E0BFE3808B918BA28BB38B62
:100A100080E090E0A0E2B1E4848B958BA68BB78B4D
:100A20002FB7F8948091E0029091E102A091E20248
:100A3000B091E3022FBF46A557A560A971A9841BF9
:100A4000950BA60BB70B82A393A3A4A3B5A30895FC
:100A50000E94B60C6115710579F0FB010190002030
:100A6000E9F73197AF01461B570BDC01ED91FC9183
:100A70000280F381E02D099480E090E00895CF9307
:100A8000DF93BC0184EE92E00E942A05EC0162E350
:100A900071E084EE92E00E942A058C0F9D1FDF9189
:100AA000CF91089510920D011092DA0288E280939E
:100AB0000C0185E391E00C943F05CF93DF93CDB714
:100AC000DEB728970FB6F894DEBF0FBECDBF85E026
:100AD000898390910B019A838B838C838D838E8382
:100AE0008F838887BE016F5F7F4F81E893E00E940C
:100AF0002A0528960FB6F894DEBF0FBECDBFDF9152
:100B0000CF9108951F920F920FB60F9211242F9339
:100B10003F938F939F93AF93BF938091E002909107
:100B2000E102A091E202B091E3023091DF0223E002
:100B3000230F2D3720F40196A11DB11D05C026E815
:100B4000230F0296A11DB11D2093DF028093E002C6
:100B50009093E102A093E202B093E3028091DB0262
:100B60009091DC02A091DD02B091DE020196A11D00
:100B7000B11D8093DB029093DC02A093DD02B09361
:100B8000DE02BF91AF919F918F913F912F910F9076
:100B90000FBE0F901F9018951F920F920FB60F92D5
:100BA00011242F933F934F935F936F937F938F9372
:100BB0009F93AF93BF93EF93FF93E0910601F09162
:100BC00007010995FF91EF91BF91AF919F918F918F
:100BD0007F916F915F914F913F912F910F900FBE39
:100BE0000F901F9018951F920F920FB60F9211241D
:100BF0002F933F934F935F936F937F938F939F9325
:100C0000AF93BF93EF93FF93E0910401F09105013F
:100C10000995FF91EF91BF91AF919F918F917F9136
:100C20006F915F914F913F912F910F900FBE0F9059
:100C30001F9018951F920F920FB60F9211242F93A9
:100C40003F934F935F936F937F938F939F93AF9354
:100C5000BF93EF93FF9384EE92E00E94BD01FF915A
:100C6000EF91BF91AF919F918F917F916F915F9124
:100C70004F913F912F910F900FBE0F901F9018959D
:100C80001F920F920FB60F9211242F938F939F9361
:100C9000EF93FF93E091F402F091F5028081E091EF
:100CA000FA02F091FB0282FD12C090818091FD0258
:100CB0008F5F8F732091FE02821751F0E091FD0249
:100CC000F0E0EC51FD4F958F8093FD0201C08081D3
:100CD000FF91EF919F918F912F910F900FBE0F90E9
:100CE0001F9018951F920F920FB60F9211242F93F9
:100CF0003F934F935F936F937F938F939F93AF93A4
:100D0000BF93EF93FF938091B900887F803609F4F9
:100D10009CC068F5883209F45BC090F4803109F416
:100D200054C038F4882309F4F6C0883009F44DC063
:100D3000F6C0883109F44CC0803209F45DC0EFC0C0
:100D4000803409F468C048F4803309F455C088330E
:100D500009F0E5C08093A702D8C0803509F44FC0E0
:100D6000883509F45DC0883409F0D9C0D6C0883907
:100D700009F4C7C0A8F4883709F467C038F4883686
:100D800009F463C0803709F460C0C9C0883809F429
:100D9000B8C0803909F45FC0803809F0C0C05BC0BA
:100DA000803B09F486C038F4803A09F466C0883A7A
:100DB00009F47FC0B4C0803C09F4A7C0883C09F4A2
:100DC000A4C0883B09F48AC0AAC08091CA0210C09E
:100DD0009091C9028091C802981770F5E091C902FC
:100DE00081E08E0F8093C902F0E0E855FD4F8081CD
:100DF0008093BB0085EC86C08093A7028EC0E091F3
:100E0000C90281E08E0F8093C9028091BB00F0E09F
:100E1000E855FD4F80839091C9028091C8026EC051
:100E2000E091C90281E08E0F8093C9028091BB00DE
:100E3000F0E0E855FD4F80838091D00281116DC0B4
:100E400081E08093CF0284EA61C083E08093D10285
:100E50001092A602CFCF8091A602803208F051C036
:100E6000E091A60281E08E0F8093A6028091BB00E4
:100E7000F0E0EA57FD4F8083BDCF85EC8093BC0046
:100E80001092D1028091A602803230F4E091A60245
:100E9000F0E0EA57FD4F10826091A60270E0E09109
:100EA000CB02F091CC0286E892E009951092A6025E
:100EB00036C084E08093D1021092850210928402A1
:100EC000E091CD02F091CE020995809184028111CA
:100ED00005C081E08093840210926402E091850253
:100EE00081E08E0F80938502F0E0EC59FD4F808108
:100EF0008093BB009091850280918402981708F43A
:100F000079CF85E88093BC000AC085EC8093BC0053
:100F10001092D10204C01092A7020E941604FF9101
:100F2000EF91BF91AF919F918F917F916F915F9161
:100F30004F913F912F910F900FBE0F901F901895DA
:100F4000E4EEF2E01382128288EE93E0A0E0B0E0DB
:100F500084839583A683B78322E131E031832083A4
:100F600025EC30E03587248724EC30E0378726876E
:100F700020EC30E0318B208B21EC30E0338B228B66
:100F800022EC30E0358B248B26EC30E0378B268B3F
:100F9000118E128E138E148EE1E8F3E0138212820A
:100FA00084839583A683B78384E291E091838083D1
:100FB00025ED33E049ED53E06DED73E081EE93E014
:100FC0000E94C1042DE833E041E953E065E973E094
:100FD00089E993E00C94C104789484B5826084BD5F
:100FE00084B5816084BD85B5826085BD85B581602D
:100FF00085BD80916E00816080936E0010928100AB
:101000008091810082608093810080918100816065
:101010008093810080918000816080938000809126
:10102000B10084608093B1008091B00081608093B2
:10103000B00080917A00846080937A0080917A0079
:10104000826080937A0080917A00816080937A0038
:1010500080917A00806880937A001092C10010928B
:10106000D5021092D4021092D3021092D2021092A2
:10107000D10281E08093D0021092CF0261E082E140
:101080000E94B10061E083E10E94B1008091B9004B
:101090008E7F8093B9008091B9008D7F8093B900D5
:1010A00088E48093B80085E48093BC0085E191E0FA
:1010B0009093CE028093CD0281E291E09093CC0296
:1010C0008093CB0280E18093BA008DE595E0909308
:1010D000D7028093D60284E994E09093D90280935A
:1010E000D802E091F402F091F50282E08083E09171
:1010F000F002F091F1021082E091F202F091F3021D
:101100008FEC80831092FC02E091F802F091F902DA
:1011100086E08083E091F602F091F70280818061A1
:101120008083E091F602F091F702808188608083ED
:10113000E091F602F091F702808180688083E0916F
:10114000F602F091F70280818F7D80838091D30336
:10115000811104C089E993E00E94D00381E080936B
:10116000D30380911B04811104C081EE93E00E949F
:10117000D00381E080931B048DE00E949200F894DC
:10118000A895809160008861809360008FE08093D3
:101190006000789492E5292E95E0392ED8E2C12C92
:1011A000D12C20E2E22E22E4F22E30920501209290
:1011B0000401809169008C7F826080936900E89AC5
:1011C000109280001092810080E892E09093890054
:1011D0008093880010928B0010928A00229A80914E
:1011E0008000836A80938000809181008961809370
:1011F000810080917C008F77806480937C00809157
:101200007A00876880937A0080917E00886080935E
:101210007E00809164008E7F8093640080917C00CA
:10122000807F80937C0080917C00836080937C0031
:101230008FE00E94FE0080E10E94FE008EE00E948E
:10124000FE00BC01990F880B990B0E948E0B20E0C9
:1012500030E04AEF51E40E94430C28E431EA4CE0CC
:1012600053E40E94E50A0E94560B6D3371053CF071
:1012700010920D011092DA0294E190930C0180918A
:10128000DA02813011F461E001C060E08DE00E947B
:10129000B100E0910A018E2FEE0F990BAA0BBB0B48
:1012A0008B309105C0F5FC01EC5CFF4F0C94B00C49
:1012B0008DE491E00E943F0510920B0130C088E55B
:1012C00091E02BC089E691E00E943F05A2E0A09347
:1012D0000B0125C083E891E020C084E991E00EC0B5
:1012E00084EB91E00BC087ED91E008C084EE91E0C3
:1012F00005C08DEF91E002C085E192E00E943F05BC
:1013000010920D011092DA02D0930C0108C081E016
:101310008093DA0204C080E392E00E943F0580914E
:10132000090160910801062E000C770B680F711DF2
:1013300087FD7A9577FF02C06F5F7F4F7595679540
:10134000C62F60910C01062E000C770B880B990BB1
:101350000E948E0B60938D0370938E0380938F0396
:10136000909390036C2FCC0F770B880B990B0E94F6
:101370008E0B6093950370939603809397039093DD
:1013800098038091D303882321F089E993E00E9498
:1013900058026091D9037091DA038091DB03909138
:1013A000DC030E94560B4B015C018B018CE00E9418
:1013B00092008114910411F460E004C00F3F110504
:1013C00029F461E08CE00E94B10043C0EAE8F0E05B
:1013D00084918330F9F048F48130B9F08230A1F57E
:1013E00084B5806284BD88BC34C08730E9F0883021
:1013F00019F1843049F580918000806280938000EB
:1014000090928B0080928A0024C084B5806884BD4D
:1014100087BC1FC08091800080688093800090927C
:1014200089008092880015C08091B0008068809308
:10143000B0008092B3000DC08091B00080628093B4
:10144000B0008092B40005C0003811050CF0B9CF8F
:10145000B3CF10921304109214041092150410923A
:10146000160480E090E0A0E2B4E480931704909327
:101470001804A0931904B0931A0480911B04C0911E
:101480000D01882309F488C00091FF031091000426
:10149000D8018D909D90AD90BC9020E030E040E26E
:1014A00054E4C501B4010E943E0C181654F480E0C7
:1014B00090E0A0E2B4E4F80180839183A283B38337
:1014C0000FC020E030E0A901C501B4010E94510B1A
:1014D00087FF06C0D8011D921D921D921C92139782
:1014E00040900704509008046090090470900A042A
:1014F0008090170490901804A0901904B0901A04DA
:10150000A5019401C301B2010E943E0C181684F09B
:101510008090130490901404A0901504B0901604C9
:10152000A5019401C301B2010E94510B87FF08C0BD
:101530008092070490920804A0920904B0920A04D1
:101540006C2FCC0F770B880B990B0E948E0B60933E
:10155000D5037093D6038093D7039093D803C0929A
:10156000DD03D092DE03E092DF03F092E00381EE30
:1015700093E00E9458026091D9037091DA03809140
:10158000DB039091DC030E945D0B70938B006093F2
:101590008A000E944E0209CE6C2FCC0F770B880B6D
:1015A000990B0E948E0B6093D5037093D6038093A2
:1015B000D7039093D803C092DD03D092DE03E0926C
:1015C000DF03F092E003D7CF5058BB27AA270E9431
:1015D000FC0A0C94040C0E94F60B38F00E94FD0BE0
:1015E00020F039F49F3F19F426F40C94F30B0EF419
:1015F000E095E7FB0C94ED0BE92F0E94150C58F3D6
:10160000BA17620773078407950720F079F4A6F5E7
:101610000C94370C0EF4E0950B2EBA2FA02D0B0175
:10162000B90190010C01CA01A0011124FF27591B27
:1016300099F0593F50F4503E68F11A16F040A22F2D
:10164000232F342F4427585FF3CF4695379527959E
:10165000A795F0405395C9F77EF41F16BA0B620B9D
:10166000730B840BBAF09150A1F0FF0FBB1F661FE4
:10167000771F881FC2F70EC0BA0F621F731F841F27
:1016800048F4879577956795B795F7959E3F08F04D
:10169000B0CF9395880F08F09927EE0F979587950F
:1016A00008950E94C90B08F481E008950E945D0B23
:1016B0006894B1110C94380C08950E941D0C88F0A8
:1016C0009F5798F0B92F9927B751B0F0E1F0660F06
:1016D000771F881F991F1AF0BA95C9F714C0B13047
:1016E00091F00E94370CB1E008950C94370C672FED
:1016F000782F8827B85F39F0B93FCCF38695779576
:101700006795B395D9F73EF490958095709561955E
:101710007F4F8F4F9F4F0895E89409C097FB3EF489
:1017200090958095709561957F4F8F4F9F4F99232E
:10173000A9F0F92F96E9BB279395F69587957795AC
:101740006795B795F111F8CFFAF4BB0F11F460FF6C
:101750001BC06F5F7F4F8F4F9F4F16C0882311F0C4
:1017600096E911C0772321F09EE8872F762F05C0D8
:10177000662371F096E8862F70E060E02AF09A9573
:10178000660F771F881FDAF7880F9695879597F968
:101790000895990F0008550FAA0BE0E8FEEF161602
:1017A0001706E807F907C0F012161306E407F50755
:1017B00098F0621B730B840B950B39F40A2661F0C9
:1017C000232B242B252B21F408950A2609F4A1406C
:1017D000A6958FEF811D811D089597F99F6780E879
:1017E00070E060E008959FEF80EC089500240A9473
:1017F0001616170618060906089500240A941216EC
:101800001306140605060895092E0394000C11F41E
:10181000882352F0BB0F40F4BF2B11F460FF04C0CB
:101820006F5F7F4F8F4F9F4F089557FD9058440F24
:10183000551F59F05F3F71F04795880F97FB991F2F
:1018400061F09F3F79F087950895121613061406EC
:10185000551FF2CF4695F1DF08C016161706180679
:10186000991FF1CF86957105610508940895E89454
:10187000BB2766277727CB0197F908950E94C90BEC
:1018800008F48FEF08950E94560C0C94040C0E94EB
:10189000F60B38F00E94FD0B20F0952311F00C940C
:1018A000ED0B0C94F30B11240C94380C0E94150CC6
:1018B00070F3959FC1F3950F50E0551F629FF001A3
:1018C000729FBB27F00DB11D639FAA27F00DB11DBC
:1018D000AA1F649F6627B00DA11D661F829F222745
:1018E000B00DA11D621F739FB00DA11D621F839FCC
:1018F000A00D611D221F749F3327A00D611D231FA2
:10190000849F600D211D822F762F6A2F11249F57EF
:1019100050409AF0F1F088234AF0EE0FFF1FBB1FF2
:10192000661F771F881F91505040A9F79E3F5105B1
:1019300080F00C94ED0B0C94380C5F3FE4F3983E70
:10194000D4F3869577956795B795F795E7959F5F5B
:10195000C1F7FE2B880F911D9695879597F90895ED
:10196000EE0FFF1F0590F491E02D099481E090E0C7
:0A197000F8940C94BB0CF894FFCF20
:10197A0000DF08DD4B014B010102171401030000CF
:10198A000000DF014C0176012C02A70185019901B3
:10199A00000000007F047404910448046C04580495
:1019AA0049040D0A0053616674657920427574749E
:1019BA006F6E20496E7465727275707400426F6F33
:1019CA0074696E672055700045737461626C69733F
:1019DA0068696E672049324300436F6D6D756E69A1
:1019EA00636174696F6E2045737461626C697368B0
:1019FA006564004E6F726D616C204F706572617420
:101A0A00696F6E004F7665722054656D70657261FC
:101A1A007475726520696E206C6F616420726567E7
:101A2A00696F6E004F7665722054656D70657261DC
:101A3A007475726520696E20636F6E74726F6C20A4
:101A4A00726567696F6E004F7665722043757272B0
:101A5A00656E740043656C6C20766F6C74616765A3
:101A6A0020697320746F6F20686967680043656C2A
:101A7A006C20766F6C7461676520697320746F6F70
:101A8A00206C6F77004261747465727920566F6CAE
:101A9A007461676520697320746F6F204C6F7700DB
:101AAA004C6F737420436F6D6D756E6963617469F1
:041ABA006F6E00004B
:107E0000112484B714BE81FFF0D085E080938100F7
:107E100082E08093C00088E18093C10086E0809377
:107E2000C20080E18093C4008EE0C9D0259A86E02C
:107E300020E33CEF91E0309385002093840096BBD3
:107E4000B09BFECF1D9AA8958150A9F7CC24DD24C4
:107E500088248394B5E0AB2EA1E19A2EF3E0BF2EE7
:107E6000A2D0813461F49FD0082FAFD0023811F036
:107E7000013811F484E001C083E08DD089C08234E0
:107E800011F484E103C0853419F485E0A6D080C0E4
:107E9000853579F488D0E82EFF2485D0082F10E0AE
:107EA000102F00270E291F29000F111F8ED06801E7
:107EB0006FC0863521F484E090D080E0DECF843638
:107EC00009F040C070D06FD0082F6DD080E0C81688
:107ED00080E7D80618F4F601B7BEE895C0E0D1E017
:107EE00062D089930C17E1F7F0E0CF16F0E7DF06D8
:107EF00018F0F601B7BEE89568D007B600FCFDCFD4
:107F0000A601A0E0B1E02C9130E011968C91119780
:107F100090E0982F8827822B932B1296FA010C0160
:107F200087BEE89511244E5F5F4FF1E0A038BF0790
:107F300051F7F601A7BEE89507B600FCFDCF97BE46
:107F4000E89526C08437B1F42ED02DD0F82E2BD052
:107F50003CD0F601EF2C8F010F5F1F4F84911BD097
:107F6000EA94F801C1F70894C11CD11CFA94CF0C13
:107F7000D11C0EC0853739F428D08EE10CD085E9AC
:107F80000AD08FE07ACF813511F488E018D01DD067
:107F900080E101D065CF982F8091C00085FFFCCF94
:107FA0009093C60008958091C00087FFFCCF809118
:107FB000C00084FD01C0A8958091C6000895E0E648
:107FC000F0E098E1908380830895EDDF803219F02E
:107FD00088E0F5DFFFCF84E1DECF1F93182FE3DFCA
:107FE0001150E9F7F2DF1F91089580E0E8DFEE27F6
:047FF000FF270994CA
:027FFE00040479
:0400000300007E007B
:00000001FF
